:0C0105000A08C0F9A4B0999282F880901A
:10008F00EF24FE601414601B14601E24037022D230
:10009F00A4D2A3D2A2C2A18018D2A4D2A3C2A2D2A8
:1000AF00A1800ED2A4C2A38004C2A4D2A3D2A2D292
:1000BF00A174082DF8E6F5807F011200F67580FF18
:0100CF00220E
:0E00F600EF600B7E027DEFDDFEDEFC1F80F270
:0101040022D8
:1000D0007D017C007F0112008F7D027C007F021277
:1000E000008F7D037C007F0312008F7D047C007FE6
:0600F0000412008F80DA0B
:03000000020003F8
:0C000300787FE4F6D8FD75811102004AF8
:10000F000200D0E493A3F8E493A34003F68001F237
:10001F0008DFF48029E493A3F85407240CC8C333F2
:10002F00C4540F4420C8834004F456800146F6DFC1
:10003F00E4800B0102040810204080900105E47E4B
:10004F00019360BCA3FF543F30E509541FFEE493B6
:10005F00A360010ECF54C025E060A840B8E493A37D
:10006F00FAE493A3F8E493A3C8C582C8CAC583CAA8
:10007F00F0A3C8C582C8CAC583CADFE9DEE780BE60
:0101110000ED
:00000001FF
