:1001510012008F8F16E51660F77F057E00120122CF
:0201610080EE2E
:0E017500EF600B7E027DEFDDFEDEFC1F80F2F0
:010183002259
:0C0184000A08C0F9A4B0999282F880909B
:1000E100EF24FE601414601B14601E24037022D2DE
:1000F100A4D2A3D2A2C2A18018D2A4D2A3C2A2D256
:10010100A1800ED2A4C2A38004C2A4D2A3D2A2D23F
:10011100A174082DF8E6F5807F011201757580FF45
:0101210022BB
:10008F00E4F51420B1107F1412017530B1FD7F1407
:10009F0012017575140120B0107F1412017530B064
:1000AF00FD7F1412017575140220B2107F14120116
:1000BF007530B2FD7F1412017575140320B3107FD4
:1000CF001412017530B3FD7F14120175751404AF4E
:0100DF00140C
:0100E00022FD
:100122008E148F15E4F512F513AE14AF157C017D14
:10013200F4120163C3E5139FE5129E5011B2867F4C
:0F014200011201750513E51370DF051280DB2232
:03000000020003F8
:0C000300787FE4F6D8FD75811602004AF3
:10016300EF8DF0A4A8F0CF8CF0A428CE8DF0A42EB0
:02017300FE226A
:10000F00020151E493A3F8E493A34003F68001F2B5
:10001F0008DFF48029E493A3F85407240CC8C333F2
:10002F00C4540F4420C8834004F456800146F6DFC1
:10003F00E4800B0102040810204080900184E47ECC
:10004F00019360BCA3FF543F30E509541FFEE493B6
:10005F00A360010ECF54C025E060A840B8E493A37D
:10006F00FAE493A3F8E493A3C8C582C8CAC583CAA8
:10007F00F0A3C8C582C8CAC583CADFE9DEE780BE60
:01019000006E
:00000001FF
