:1000B40075A0FE1200D41200628F0AE50A60F7B43C
:1000C40001F4050BE50BC3940240EBE4F50B80E669
:03000B0002000EE2
:0B000E00C0E0C0D075D000C000C007EB
:10001900758AFF758AFF0509E50970020508C39409
:100029000AE50894004029750800750900E50B7078
:100039000DAFA07801EF08800123D8FDF5A0E50BED
:10004900B4010DAFA07801EF08800103D8FDF5A038
:09005900D007D000D0D0D0E03275
:1000D4005389F0438901758AFF758CFFC28DD28CD8
:0700E400D2A9D2AFC2B9227C
:10006200E4F50C20B1107F141200F730B1FD7F14BB
:100072001200F7750C0120B0107F141200F730B097
:10008200FD7F141200F7750C0220B2107F141200CB
:10009200F730B2FD7F141200F7750C0320B3107F06
:1000A200141200F730B3FD7F141200F7750C04AF81
:0100B2000C41
:0100B300222A
:0200F7008F0D6B
:0800F9007F027EC7DEFEDFFC82
:0101010022DB
:030000000200EB10
:0C00EB00787FE4F6D8FD75810D0200B4AA
:00000001FF
