:0C010B000A08C0F9A4B0999282F8809014
:10008F00EF24FE601414601B14601E24037022D230
:10009F00A4D2A3D2A2C2A18018D2A4D2A3C2A2D2A8
:1000AF00A1800ED2A4C2A38004C2A4D2A3D2A2D292
:0900BF00A174082DF8E6F5802279
:0E00FC00EF600B7E027DC7DDFEDEFC1F80F292
:01010A0022D2
:1000C800E4FB7A01EA6405602ABB0A02E4FBEBC39D
:1000D800940A501BAF02EBFD7C0012008F7FE812E0
:1000E80000FC7FE81200FC7FE81200FC0B80DF0AAE
:0300F800EA70D1DA
:0100FB0022E2
:03000000020003F8
:0C000300787FE4F6D8FD75811102004AF8
:10000F000200C8E493A3F8E493A34003F68001F23F
:10001F0008DFF48029E493A3F85407240CC8C333F2
:10002F00C4540F4420C8834004F456800146F6DFC1
:10003F00E4800B010204081020408090010BE47E45
:10004F00019360BCA3FF543F30E509541FFEE493B6
:10005F00A360010ECF54C025E060A840B8E493A37D
:10006F00FAE493A3F8E493A3C8C582C8CAC583CAA8
:10007F00F0A3C8C582C8CAC583CADFE9DEE780BE60
:0101170000E7
:00000001FF
