:0300CE0001080026
:1000A60012008FAF081200C605087FE81200B7805D
:0100B600F257
:0E00B700EF600B7E027DEFDDFEDEFC1F80F2AF
:0100C5002218
:10008F0043878075984053890F438920758BF4758A
:07009F008DF4C2ABD28E22EA
:0800C6008F993099FDC29922C7
:03000000020003F8
:0C000300787FE4F6D8FD75810802004A01
:10000F000200A6E493A3F8E493A34003F68001F261
:10001F0008DFF48029E493A3F85407240CC8C333F2
:10002F00C4540F4420C8834004F456800146F6DFC1
:10003F00E4800B01020408102040809000CEE47E83
:10004F00019360BCA3FF543F30E509541FFEE493B6
:10005F00A360010ECF54C025E060A840B8E493A37D
:10006F00FAE493A3F8E493A3C8C582C8CAC583CAA8
:10007F00F0A3C8C582C8CAC583CADFE9DEE780BE60
:0100D100002E
:00000001FF
